{
  "contractName": "IoTOracleContract",
  "abi": [
    {
      "constant": true,
      "inputs": [],
      "name": "callbackAddress",
      "outputs": [
        {
          "name": "",
          "type": "address"
        }
      ],
      "payable": false,
      "stateMutability": "view",
      "type": "function"
    },
    {
      "constant": false,
      "inputs": [
        {
          "name": "_callbackAddress",
          "type": "address"
        }
      ],
      "name": "setCallbackAddress",
      "outputs": [],
      "payable": false,
      "stateMutability": "nonpayable",
      "type": "function"
    },
    {
      "constant": false,
      "inputs": [
        {
          "name": "isAlret",
          "type": "bool"
        },
        {
          "name": "sender",
          "type": "address"
        },
        {
          "name": "receiver",
          "type": "address"
        },
        {
          "name": "summary",
          "type": "address"
        },
        {
          "name": "txnHash",
          "type": "string"
        }
      ],
      "name": "triggerEvent",
      "outputs": [
        {
          "name": "",
          "type": "bool"
        }
      ],
      "payable": false,
      "stateMutability": "nonpayable",
      "type": "function"
    },
    {
      "constant": true,
      "inputs": [],
      "name": "state",
      "outputs": [
        {
          "name": "",
          "type": "string"
        }
      ],
      "payable": false,
      "stateMutability": "view",
      "type": "function"
    },
    {
      "inputs": [],
      "payable": false,
      "stateMutability": "nonpayable",
      "type": "constructor"
    },
    {
      "anonymous": false,
      "inputs": [
        {
          "indexed": false,
          "name": "sender",
          "type": "address"
        },
        {
          "indexed": false,
          "name": "receiver",
          "type": "address"
        },
        {
          "indexed": false,
          "name": "summary",
          "type": "address"
        },
        {
          "indexed": false,
          "name": "txnHash",
          "type": "string"
        }
      ],
      "name": "QueryEvent",
      "type": "event"
    }
  ],
  "bytecode": "0x6060604052341561000f57600080fd5b336000806101000a81548173ffffffffffffffffffffffffffffffffffffffff021916908373ffffffffffffffffffffffffffffffffffffffff1602179055506105968061005e6000396000f300606060405260043610610061576000357c0100000000000000000000000000000000000000000000000000000000900463ffffffff168062df475e1461006657806337881810146100bb57806351764f4b146100f4578063c19d93fb146101d1575b600080fd5b341561007157600080fd5b61007961025f565b604051808273ffffffffffffffffffffffffffffffffffffffff1673ffffffffffffffffffffffffffffffffffffffff16815260200191505060405180910390f35b34156100c657600080fd5b6100f2600480803573ffffffffffffffffffffffffffffffffffffffff16906020019091905050610285565b005b34156100ff57600080fd5b6101b76004808035151590602001909190803573ffffffffffffffffffffffffffffffffffffffff1690602001909190803573ffffffffffffffffffffffffffffffffffffffff1690602001909190803573ffffffffffffffffffffffffffffffffffffffff1690602001909190803590602001908201803590602001908080601f016020809104026020016040519081016040528093929190818152602001838380828437820191505050505050919050506102c9565b604051808215151515815260200191505060405180910390f35b34156101dc57600080fd5b6101e4610427565b6040518080602001828103825283818151815260200191508051906020019080838360005b83811015610224578082015181840152602081019050610209565b50505050905090810190601f1680156102515780820380516001836020036101000a031916815260200191505b509250505060405180910390f35b600160009054906101000a900473ffffffffffffffffffffffffffffffffffffffff1681565b80600160006101000a81548173ffffffffffffffffffffffffffffffffffffffff021916908373ffffffffffffffffffffffffffffffffffffffff16021790555050565b600081600290805190602001906102e19291906104c5565b507f3ab0897de1e639cfcc81849e4888736776bf8d220093d6eb18811f0072b92b4c85858585604051808573ffffffffffffffffffffffffffffffffffffffff1673ffffffffffffffffffffffffffffffffffffffff1681526020018473ffffffffffffffffffffffffffffffffffffffff1673ffffffffffffffffffffffffffffffffffffffff1681526020018373ffffffffffffffffffffffffffffffffffffffff1673ffffffffffffffffffffffffffffffffffffffff16815260200180602001828103825283818151815260200191508051906020019080838360005b838110156103dd5780820151818401526020810190506103c2565b50505050905090810190601f16801561040a5780820380516001836020036101000a031916815260200191505b509550505050505060405180910390a16001905095945050505050565b60028054600181600116156101000203166002900480601f0160208091040260200160405190810160405280929190818152602001828054600181600116156101000203166002900480156104bd5780601f10610492576101008083540402835291602001916104bd565b820191906000526020600020905b8154815290600101906020018083116104a057829003601f168201915b505050505081565b828054600181600116156101000203166002900490600052602060002090601f016020900481019282601f1061050657805160ff1916838001178555610534565b82800160010185558215610534579182015b82811115610533578251825591602001919060010190610518565b5b5090506105419190610545565b5090565b61056791905b8082111561056357600081600090555060010161054b565b5090565b905600a165627a7a72305820ed98b172a995cf5c8c0e76de19378ec091e8bc7bd2d68de0421e0c7ecc15a34b0029",
  "source": "\npragma solidity ^0.4.10;\n\ncontract IoTOracleContract {\n    address owner;\n    address public callbackAddress;\n    string public state;\n\n    event QueryEvent(address sender, address receiver, address summary, string txnHash);\n\n    function IoTOracleContract () {\n        owner = msg.sender;\n    }\n\n    modifier ownerOnly {\n        require(owner == msg.sender);\n        _;\n    }\n    function setCallbackAddress(address _callbackAddress) {\n        callbackAddress = _callbackAddress;\n    }\n\n    //summary:contract address\n    function triggerEvent(bool isAlret, address sender, address receiver, address summary, string txnHash) returns (bool){\n\t\tstate = txnHash;\n        QueryEvent(sender, receiver, summary, txnHash);\n\n        return true;\n    }\n}\n",
  "sourcePath": "/home/azureuser/app3/contracts/IoTOracleContract.sol",
  "compiler": {
    "name": "solc",
    "version": "0.4.18+commit.9cf6e910.Emscripten.clang"
  },
  "schemaVersion": "1.0.1",
  "updatedAt": "2017-11-15T01:36:22.581Z"
}