{
  "contractName": "IoTOracleApp",
  "abi": [
    {
      "constant": true,
      "inputs": [],
      "name": "oracle",
      "outputs": [
        {
          "name": "",
          "type": "address"
        }
      ],
      "payable": false,
      "stateMutability": "view",
      "type": "function"
    },
    {
      "constant": false,
      "inputs": [],
      "name": "_callback",
      "outputs": [],
      "payable": false,
      "stateMutability": "nonpayable",
      "type": "function"
    },
    {
      "inputs": [],
      "payable": false,
      "stateMutability": "nonpayable",
      "type": "constructor"
    }
  ],
  "bytecode": "0x6060604052341561000f57600080fd5b7328c0b5f1985a7e812dded805842fad43e09bde9d6000806101000a81548173ffffffffffffffffffffffffffffffffffffffff021916908373ffffffffffffffffffffffffffffffffffffffff1602179055506101ee806100726000396000f30060606040526004361061004c576000357c0100000000000000000000000000000000000000000000000000000000900463ffffffff1680637dc0d1d014610051578063c8f9e34a146100a6575b600080fd5b341561005c57600080fd5b6100646100bb565b604051808273ffffffffffffffffffffffffffffffffffffffff1673ffffffffffffffffffffffffffffffffffffffff16815260200191505060405180910390f35b34156100b157600080fd5b6100b96100e0565b005b6000809054906101000a900473ffffffffffffffffffffffffffffffffffffffff1681565b6000809054906101000a900473ffffffffffffffffffffffffffffffffffffffff1673ffffffffffffffffffffffffffffffffffffffff1662df475e6000604051602001526040518163ffffffff167c0100000000000000000000000000000000000000000000000000000000028152600401602060405180830381600087803b151561016c57600080fd5b6102c65a03f1151561017d57600080fd5b5050506040518051905073ffffffffffffffffffffffffffffffffffffffff163373ffffffffffffffffffffffffffffffffffffffff161415156101c057600080fd5b5600a165627a7a723058205ac609e04d8ae7aba4bcbd391d9286b68bc429a2822178a10d413c14873c2eba0029",
  "source": "pragma solidity ^0.4.10;\n\nimport \"./IoTOracleContract.sol\";\n\n/*\nIoTOracleContract: '0x28c0b5f1985a7e812DDeD805842faD43E09BDE9d'\nIoTEnvironmentSummary: 0xf499a3328698423bd27ce4fc16e76c3ca84d0a8e\n*/\n\n//my client contract\ncontract IoTOracleApp {\n    IoTOracleContract public oracle;\n\n    function IoTOracleApp() {\n        oracle = IoTOracleContract(0x28c0b5f1985a7e812DDeD805842faD43E09BDE9d);\n    }\n\n    modifier myOracleAPI {\n        _;\n    }\n\n    modifier onlyFromCallback {\n        require(msg.sender == oracle.callbackAddress());\n        _;\n    }\n\n    function queryOracle(bool _alert, address _sender, address _receiver, address _contract, string _txnHash) internal myOracleAPI returns(bool) {\n        return oracle.triggerEvent(_alert, _sender,  _receiver,  _contract,  _txnHash);\n    }\n\n    function _callback() onlyFromCallback {\n        //callback function for offchain to call back\n\n    }\n}\n//https://ethereum.stackexchange.com/questions/3609/returning-a-struct-and-reading-via-web3/3614#3614\ncontract IoTEnvironmentSummary is IoTOracleApp {\n    address public sender;\n    address public receiver;\n    address public summary;\n    string public txnHash;\n    bool public isAlert;\n    string public indexes;\n\n    function IoTEnvironmentSummary() {\n        sender = msg.sender;\n        summary = this;\n    }\n\n    event OnCallBack();\n\n     // override\n    function _callback() onlyFromCallback {\n        OnCallBack();\n    }\n\n    function updateSummary(bool _isAlert, address _receiver, string _txnHash, string _indexes) {\n        receiver = _receiver;\n        txnHash = _txnHash;\n        isAlert = _isAlert;\n        indexes = _indexes;\n\t\toracle.triggerEvent(isAlert, sender,  receiver,  summary,  txnHash);\n\t\tqueryOracle(isAlert, sender,  receiver,  summary,  \"fired second times\");\n    }\n}\n\n",
  "sourcePath": "/home/azureuser/app3/contracts/IoTEnvironmentSummary.sol",
  "compiler": {
    "name": "solc",
    "version": "0.4.18+commit.9cf6e910.Emscripten.clang"
  },
  "schemaVersion": "1.0.1",
  "updatedAt": "2017-11-15T01:36:22.575Z"
}